:020000040800F2
:1000000000000320051900089D1800089F1800082B
:10001000A1180008A3180008A51800080000000097
:10002000000000000000000000000000A718000809
:10003000A918000800000000AB180008AD1800085F
:1000400055190008551900085519000855190008D8
:1000500055190008551900085519000855190008C8
:1000600055190008551900085519000855190008B8
:1000700055190008551900085519000855190008A8
:100080005519000855190008551900085519000898
:100090005519000855190008551900085519000888
:1000A0005519000855190008551900085519000878
:1000B000BD13000855190008551900085519000806
:1000C0005519000855190008551900085519000858
:1000D0005519000855190008551900085519000848
:1000E0005519000855190008551900085519000838
:1000F0005519000855190008551900085519000828
:100100005519000855190008551900085519000817
:1001100055190008811400085519000855190008E0
:1001200055190008551900085519000855190008F7
:1001300055190008551900085519000855190008E7
:1001400055190008551900085519000855190008D7
:1001500055190008551900085519000855190008C7
:1001600055190008551900085519000855190008B7
:10017000551900085519000855190008000000001D
:100180005519000855190008551900085519000897
:100190005519000855190008551900085519000887
:0C01A000551900085519000855190008F1
:1001AC0010B5054C237833B9044B13B10448AFF3A5
:1001BC0000800123237010BD0C0000200000000003
:1001CC00A019000808B5034B1BB103490348AFF352
:1001DC00008008BD0000000010000020A0190008DD
:1001EC0053B94AB9002908BF00281CBF4FF0FF3192
:1001FC004FF0FF3000F072B9ADF1080C6DE904CE90
:10020C0000F006F8DDF804E0DDE9022304B07047E5
:10021C002DE9F047089E04468846002B4BD18A42B4
:10022C00154667D9B2FA82F24AB1C2F1200701FA37
:10023C0002F320FA07F7954047EA030894404FEA87
:10024C00154E230CB8FBFEF71FFA85FC0EFB178826
:10025C0043EA084307FB0CF1994209D9EB1807F163
:10026C00FF3080F01B81994240F21881023F2B44F1
:10027C005B1AA4B2B3FBFEF00EFB103344EA03444A
:10028C0000FB0CFCA44509D92C1900F1FF3380F0BC
:10029C000781A44540F2048102382C4440EA07400F
:1002AC00A4EB0C0400271EB1D4400023C6E9004384
:1002BC003946BDE8F0878B4209D9002E00F0EB805F
:1002CC000027C6E9000138463946BDE8F087B3FA85
:1002DC0083F7002F47D18B4202D3824200F2FA807F
:1002EC00841A61EB030301209846002EE0D0C6E986
:1002FC000048DDE702B9FFDEB2FA82F2002A40F0D4
:10030C008F80491B4FEA154E1FFA85F80127B1FB68
:10031C00FEFC230C0EFB1C1143EA014308FB0CF101
:10032C00994207D9EB180CF1FF3002D2994200F236
:10033C00CD808446591AA3B2B1FBFEF00EFB10140B
:10034C0043EA044408FB00F8A04507D92C1900F136
:10035C00FF3302D2A04500F2B6801846A4EB080485
:10036C0040EA0C409FE7C7F1200CBB4022FA0CFE80
:10037C004EEA030E01FA07F420FA0CF521FA0CF3FD
:10038C004FEA1E482543B3FBF8F92C0C08FB193334
:10039C001FFA8EFA44EA034309FB0AF49C4202FA60
:1003AC0007F200FA07F10BD91EEB030309F1FF303A
:1003BC0080F087809C4240F28480A9F1020973444A
:1003CC001B1BADB2B3FBF8F008FB103345EA03443A
:1003DC0000FB0AFAA24508D91EEB040400F1FF3316
:1003EC006BD2A24569D90238744440EA0940A0FB9B
:1003FC000289A4EB0A044C45C2464B4654D351D057
:10040C00002E69D0B1EB0A0564EB030404FA0CFC72
:10041C00FD40FC404CEA0505C6E90054002747E7BF
:10042C00C2F1200320FA03F7954001FA02F021FAF9
:10043C0003F34FEA154E3843010CB3FBFEF71FFADA
:10044C0085F80EFB173341EA034107FB08F38B4297
:10045C0004FA02F407D9691807F1FF3C2FD28B423A
:10046C002DD9023F2944CB1A81B2B3FBFEF00EFB0F
:10047C00103341EA034100FB08F38B4207D969189A
:10048C0000F1FF3C17D28B4215D902382944C91A06
:10049C0040EA07473BE73746304609E70746E7E6B9
:1004AC001846FBE64145ABD2B8EB020A69EB0E02EB
:1004BC0001381346A4E76046E9E7184695E7674616
:1004CC00D1E781467CE702382C4447E7ACF1020CBB
:1004DC002B442FE7384608E73746E9E6704700BF5C
:1004EC0010F8012B11F8013B012A28BF9A42F7D0D2
:1004FC00D01A704710B504460E4B18784FF47A7327
:10050C00B3FBF0F30C4A1068B0FBF3F000F088F882
:10051C0068B90F2C01D901200AE0002221464FF0C6
:10052C00FF3000F049F8034B5C60002000E0012034
:10053C0010BD00BF000000200800002008B50B4BC8
:10054C001A6842F400721A601A6842F480621A60E7
:10055C001A6842F480721A60032000F01BF8002025
:10056C00FFF7C8FF01F01EF9002008BD003C024057
:10057C00034A1168034B1B780B441360704700BF90
:10058C003000002000000020014B1868704700BFAD
:10059C0030000020074AD36823F4E0631B041B0CD3
:1005AC00000200F4E060184340F0BF6040F40030FB
:1005BC00D060704700ED00E030B4174BDB68C3F33C
:1005CC000223C3F10704042C28BF04241D1D062D8F
:1005DC0018D9033B4FF0FF3505FA04F421EA040166
:1005EC00994005FA03F322EA0303194300280BDBB5
:1005FC000901C9B200F1604000F5614080F80013B8
:10060C0030BC70470023E5E700F00F000901C9B2C8
:10061C00024B1954F4E700BF00ED00E014ED00E0CC
:10062C000138B0F1807F0AD2064B5860064AF0219F
:10063C0082F823100020986007221A60704701206E
:10064C00704700BF10E000E000ED00E0042805D08A
:10065C00054A136823F0040313607047024A1368B9
:10066C0043F004031360704710E000E0704708B5D6
:10067C00FFF7FCFF08BD000000230F2B00F2E38006
:10068C00F0B482B039E0092200E00022B2403A43D3
:10069C0002346D4E46F824206C4A1468EA4302EA90
:1006AC0004064F6817F4803F01D045EA0406674CF6
:1006BC002660646802EA04064F6817F4003F01D014
:1006CC0045EA0406614C6660A46802EA04064F68B9
:1006DC0017F4801F01D045EA04065C4CA660E46860
:1006EC0022404E6816F4001F01D045EA0402574C14
:1006FC00E26001330F2B00F2A38001229A400C68B8
:10070C0004EA0205AA42F4D14C68022C01D0122C46
:10071C0010D1DE08083650F826C003F00704A700F5
:10072C000F24BC402CEA040C0C69BC4044EA0C04B9
:10073C0040F8264004685F000326BE40F64306EAF4
:10074C00040C4C6804F00304BC4044EA0C04046040
:10075C004C6804F1FF3CBCF1010F03D9112C01D002
:10076C00122C10D1846806EA040CCC68BC4044EA14
:10077C000C048460446824EA02024C68C4F300143C
:10078C009C4014434460C26816408A68BA403243A5
:10079C00C2604A6812F0805FABD0002201922C4AF2
:1007AC00546C44F480445464526C02F480420192C0
:1007BC00019A9C08A61C244A52F8267003F00302E6
:1007CC0096000F22B24027EA0207224A90423FF4D9
:1007DC005CAF02F58062904222D002F580629042BA
:1007EC0020D002F5806290421ED002F580629042C9
:1007FC001CD002F5806290421AD002F580629042C1
:10080C0018D002F58062904216D002F580629042B8
:10081C0014D002F5806290423FF435AF0A2235E7DE
:10082C00012233E7022231E703222FE704222DE7CE
:10083C0005222BE7062229E7072227E7082225E7CE
:10084C0002B0F0BC7047704700380140003C0140DA
:10085C00003802400000024010B582B00023019322
:10086C00194B1A6C42F080521A641B6C03F08053C3
:10087C000193019B154B01221A60FFF785FE04467C
:10088C00134B5B6813F4803F08D1FFF77DFE001B10
:10089C00B0F57A7FF4D9032002B010BD0D4B0122C4
:1008AC001A60FFF771FE0446094B5B6813F4003FB6
:1008BC0007D1FFF769FE001BB0F57A7FF4D903204E
:1008CC00EAE70020E8E700BF0038024040000E4293
:1008DC000070004044000E42002800F0BB8170B54F
:1008EC0082B00446036813F0010F3BD0A74B9B6802
:1008FC0003F00C03042B2CD0A44B9B6803F00C03CB
:10090C00082B21D06368B3F5803F4FD0B3F5A02FEF
:10091C0052D09E4B1A6822F480321A601A6822F464
:10092C0080221A606368002B50D0FFF72DFE05461D
:10093C00964B1B6813F4003F14D1FFF725FE401BA8
:10094C006428F5D903208AE1904B5B6813F4800F7F
:10095C00D8D08E4B1B6813F4003F03D06368002B78
:10096C0000F07A81236813F0020F55D0874B9B68F7
:10097C0013F00C0F3ED0854B9B6803F00C03082B37
:10098C0033D0E368002B68D0814B01221A60FFF74B
:10099C00FBFD05467D4B1B6813F0020F54D1FFF78E
:1009AC00F3FD401B0228F5D9032058E1774A136860
:1009BC0043F480331360B5E7744B1A6842F4802219
:1009CC001A601A6842F480321A60ABE7FFF7DCFD5C
:1009DC0005466E4B1B6813F4003FC3D0FFF7D4FDE4
:1009EC00401B6428F5D9032039E1684B5B6813F48C
:1009FC00800FC6D1654B1B6813F0020F04D0E3685F
:100A0C00012B01D001202AE1604A136823F0F8037E
:100A1C00216943EAC1031360236813F0080F40D027
:100A2C00636963B35B4B01221A60FFF7ADFD0546AA
:100A3C00564B5B6F13F0020F33D1FFF7A5FD401B34
:100A4C000228F5D903200AE1504A136823F0F80371
:100A5C00216943EAC1031360DEE74D4B00221A60A3
:100A6C00FFF792FD0546494B1B6813F0020FD3D0DC
:100A7C00FFF78AFD401B0228F5D90320EFE0454B18
:100A8C0000221A60FFF780FD0546404B5B6F13F0A8
:100A9C00020F06D0FFF778FD401B0228F5D9032082
:100AAC00DDE0236813F0040F79D0384B1B6C13F086
:100ABC00805F33D100230193344B1A6C42F0805287
:100ACC001A641B6C03F080530193019B0125324B7C
:100ADC001B6813F4807F23D0A368012B34D0052B23
:100AEC0038D02A4B1A6F22F001021A671A6F22F0C3
:100AFC0004021A67A368002B36D0FFF745FD0646A3
:100B0C00224B1B6F13F0020F48D1FFF73DFD801BEA
:100B1C0041F288339842F3D90320A0E00025D6E7B0
:100B2C001D4A136843F480731360FFF72DFD0646CE
:100B3C00194B1B6813F4807FCED1FFF725FD801B6A
:100B4C000228F5D903208AE0104A136F43F0010301
:100B5C001367CFE70D4B1A6F42F004021A671A6F36
:100B6C0042F001021A67C5E7FFF70EFD0646074B78
:100B7C001B6F13F0020F11D0FFF706FD801B41F223
:100B8C0088339842F3D9032069E000BF0038024053
:100B9C0000004742800E474200700040E5B9A3694F
:100BAC00002B5BD0304A926802F00C02082A58D015
:100BBC00022B17D02D4B00221A60FFF7E5FC0446E0
:100BCC00294B1B6813F0007F42D0FFF7DDFC001BA4
:100BDC000228F5D9032042E0234A136C23F08053FA
:100BEC001364DCE7214B00221A60FFF7CDFC0546AD
:100BFC001D4B1B6813F0007F06D0FFF7C5FC401B94
:100C0C000228F5D903202AE0E369226A1343626AB9
:100C1C0043EA8213A26A5208013A43EA0243E26AA7
:100C2C0043EA0263104A5360104B01221A60FFF72B
:100C3C00ABFC04460C4B1B6813F0007F06D1FFF78E
:100C4C00A3FC001B0228F5D9032008E0002006E0D5
:100C5C00002004E001207047012000E0002002B0D9
:100C6C0070BD0120FBE700BF003802406000474226
:100C7C00324B9B6803F00C03042B5CD0082B01D087
:100C8C002F4870472DE9F04B2C4B5A6802F03F026D
:100C9C005B6813F4800F2BD0284B5B68C3F388136D
:100CAC001E4600275C010025E41A65EB0705A90127
:100CBC0041EA9461A001001B61EB0501CB0043EA02
:100CCC005073C400A01943EB07014B0243EAD05305
:100CDC004402204619460023FFF782FA174B5B6843
:100CEC00C3F3014301335B00B0FBF3F0BDE8F08BC1
:100CFC00124B5B68C3F388131E4600275C0100256A
:100D0C00E41A65EB0705A90141EA9461A001001BF7
:100D1C0061EB0501CB0043EA5073C400A01943EB0F
:100D2C0007018B0243EA90538402204619460023A4
:100D3C00FFF756FAD2E70348704700BF003802406D
:100D4C000024F40000127A00002800F09D8070B599
:100D5C0004464F4B1B6803F00F038B4209D2CBB2F6
:100D6C004B4A1370136803F00F038B4201D0012020
:100D7C0070BD236813F0020F17D013F0040F04D0CA
:100D8C00444A936843F4E0539360236813F0080FCC
:100D9C0004D0404A936843F4604393603D4A93689F
:100DAC0023F0F003A068034393600D46236813F00F
:100DBC00010F32D06368012B21D09A1E012A25D94C
:100DCC00344A126812F0020F60D032498A6822F05D
:100DDC00030213438B60FFF7D7FB06462D4B9B6832
:100DEC0003F00C036268B3EB820F16D0FFF7CCFB59
:100DFC00801B41F288339842F0D90320B8E7254A8A
:100E0C00126812F4003FE0D10120B1E7214A1268C8
:100E1C0012F0007FD9D10120AAE71D4B1B6803F00B
:100E2C000F03AB4209D9EAB2194B1A701B6803F0D5
:100E3C000F03AB4201D001209AE7236813F0040F93
:100E4C0006D0144A936823F4E053E1680B43936093
:100E5C00236813F0080F07D00E4A936823F46043FD
:100E6C00216943EAC1039360FFF702FF094B9B68BA
:100E7C00C3F30313084AD35CD840084B1860002016
:100E8C00FFF738FB002073E70120704701206FE764
:100E9C00003C024000380240B8190008080000204D
:100EAC00014B1868704700BF0800002008B5FFF719
:100EBC00F7FF044B9B68C3F38223034AD35CD840EF
:100ECC0008BD00BF00380240C819000808B5FFF77C
:100EDC00E7FF044B9B68C3F34233034AD35CD8400F
:100EEC0008BD00BF00380240C81900082DE9F843BE
:100EFC00044601680A6922F44052C36813430B612B
:100F0C000168CA6822F4164222F00C028368006958
:100F1C00034360690343E06903431343CB602168D7
:100F2C004A6922F44072A36913434B61E369B3F538
:100F3C00004F60D02368B84A934200F0148102F548
:100F4C008062934200F00F81FFF7B0FF00EB80004E
:100F5C0000EB80006568AD00B0FBF5F5AF4FA7FB6B
:100F6C0005356D092E01FFF7A1FF00EB800000EBAA
:100F7C0080006568AD00B0FBF5F9FFF797FF00EB5B
:100F8C00800000EB80006568AD00B0FBF5F5A7FBB9
:100F9C0005356D094FF0640808FB15952D013235A8
:100FAC00A7FB05356D0905F0F0053544FFF77EFF0D
:100FBC0000EB800000EB80006668B600B0FBF6F634
:100FCC00FFF774FF00EB800000EB800063689B0070
:100FDC00B0FBF3F0A7FB0030400908FB10684FEAA8
:100FEC00081808F13208A7FB0837C7F34317236822
:100FFC002F449F600DE12368874A93425BD002F532
:10100C008062934257D0FFF751FF00EB800000EB5A
:10101C00800065686D00B0FBF5F5804FA7FB0535CA
:10102C006D092E01FFF742FF00EB800000EB800002
:10103C0065686D00B0FBF5F9FFF738FF00EB800039
:10104C0000EB800065686D00B0FBF5F5A7FB05357E
:10105C006D094FF0640808FB1595ED003235A7FBC0
:10106C0005356D096D0005F4F8753544FFF71EFF65
:10107C0000EB800000EB800066687600B0FBF6F6B3
:10108C00FFF714FF00EB800000EB800063685B004F
:10109C00B0FBF3F3A7FB03235B0908FB13684FEAD0
:1010AC00C80808F13208A7FB0837C7F342172368B2
:1010BC002F449F60ADE0FFF709FF00EB800000EBD1
:1010CC00800065686D00B0FBF5F5544FA7FB053546
:1010DC006D092E01FFF7FAFE00EB800000EB80009B
:1010EC0065686D00B0FBF5F9FFF7F0FE00EB8000D2
:1010FC0000EB800065686D00B0FBF5F5A7FB0535CE
:10110C006D094FF0640808FB1595ED003235A7FB0F
:10111C0005356D096D0005F4F8753544FFF7D6FEFD
:10112C0000EB800000EB800066687600B0FBF6F602
:10113C00FFF7CCFE00EB800000EB800063685B00E7
:10114C00B0FBF3F3A7FB03235B0908FB13684FEA1F
:10115C00C80808F13208A7FB0837C7F34217236801
:10116C002F449F6055E0FFF7B1FE00EB800000EBD1
:10117C0080006568AD00B0FBF5F5284FA7FB053581
:10118C006D092E01FFF7A2FE00EB800000EB800042
:10119C006568AD00B0FBF5F9FFF798FE00EB800039
:1011AC0000EB80006568AD00B0FBF5F5A7FB0535DD
:1011BC006D094FF0640808FB15952D013235A7FB1E
:1011CC0005356D0905F0F0053544FFF77FFE00EBA2
:1011DC00800000EB80006668B600B0FBF6F6FFF707
:1011EC0075FE00EB800000EB800063689B00B0FB99
:1011FC00F3F0A7FB0030400908FB10684FEA081811
:10120C0008F13208A7FB0837C7F3431723682F44AC
:10121C009F60BDE8F88300BF001001401F85EB51B3
:10122C00002830D010B5044690F8393033B324235D
:10123C0084F839302268D36823F40053D3602046F5
:10124C00FFF754FE2268136923F49043136122685C
:10125C00536923F0220353612268536943F0080356
:10126C0053612268D36843F40053D3600020E063D9
:10127C00202384F8393084F83A3010BD80F83830A7
:10128C0000F0DAFAD3E7012070472DE9F04302F0C1
:10129C00030EC2F3800CC2F3C107521102F0060612
:1012AC000025012302E05B009BB201350F2D40DCD1
:1012BC000B42F8D0D0F800806C000322A240D2433D
:1012CC0008EA0208C0F80080D0F800800EFA04F991
:1012DC0048EA0908C0F80080D0F804804FF00109F2
:1012EC0009FA04F928EA0908C0F80480D0F8048047
:1012FC000CFA05F948EA0908C0F80480D0F808800F
:10130C0002EA0808C0F80880D0F8088007FA04F947
:10131C0048EA0908C0F80880D0F80C8002EA0802F4
:10132C00C260D0F80C8006FA04F248EA0202C260ED
:10133C00B9E7BDE8F08370B400F12006002425461F
:10134C00012304E003EA01055B009BB20134002D8C
:10135C00F8D0072C02DD00F12406083C013CA40067
:10136C0002FA04F4346070BC7047012A02D00904FC
:10137C008161704781617047436959404161704791
:10138C00034600280EDB5B11424200F01F0002F006
:10139C001F0258BF5042012202FA00F0034A42F8E1
:1013AC002300704700F11F03EDE700BF00E100E0F0
:1013BC0008B54FF080431B6913F0010F00D108BD35
:1013CC004FF400510C48FFF7D7FF0C4A1368013358
:1013DC0013604FF080426FF001011161082BEEDDBC
:1013EC001346D2680A40DA601A680A401A60034B46
:1013FC0000221A60E3E700BF00180240280000201A
:10140C0082B007EE901AF8EE676AC3F1020302FB92
:10141C0003F2D20007EE902AB8EE677AC6EE877A0E
:10142C00BCEEE77A8DED017A9DF8041007EE101AE8
:10143C00B8EEC77A37EEC77ADB0007EE903AF8EED3
:10144C00E77A67EE877AFDEEE77ACDED017A9DF8C3
:10145C00042042EA0112826002B0704710B594B2C7
:10146C00C460120C026143610023029A0399FFF7D6
:10147C00C7FF10BD284B1B6813F0200F4BD026491B
:10148C004A68264B1B68D2B22548C254096811F031
:10149C00800F01D020494A60214AD25C0A2A03D02D
:1014AC0001331E4A1360704710B51D480022C25408
:1014BC001C49FFF715F8E8B11B491948FFF710F85C
:1014CC0010B31A491648FFF70BF8C8B94FF080440F
:1014DC00174BE3623123A362002363621C20FFF7E6
:1014EC004FFFE36843F00103E360236843F001031B
:1014FC00236005E001224FF400510E48FFF735FF41
:10150C00064B00221A6010BD00224FF4005109480E
:10151C00FFF72BFFF4E77047005000402C00002031
:10152C0074000020D0190008DC190008EC19000820
:10153C0074B701000018024082B0002100910B4BDF
:10154C001A6B42F080021A631A6B02F0800200924E
:10155C00009A01911A6B42F004021A631B6B03F0A0
:10156C0004030193019B02B0704700BF0038024096
:10157C00FEE7000008B50B480B4B03604FF4E1335A
:10158C00436000238360C36003610C22426183616A
:10159C00C361FFF745FE00B908BD4FF48E710348D7
:1015AC00FFF7E6FF3400002000500040F819000857
:1015BC0000B595B0002101912E4B1A6C42F080526F
:1015CC001A641B6C03F080530193019B02912A4B0C
:1015DC001A6842F440421A601B6803F440430293B9
:1015EC00029B012308934FF48033099302220E923D
:1015FC004FF480030F9304231093B4211191129292
:10160C00139308A8FFF768F938BBFFF725F940BB1F
:10161C000F23039302230493002305934FF4A05349
:10162C0006934FF480530793052103A8FFF78CFB17
:10163C00D8B9FFF735FC114BA3FB00308009FEF73E
:10164C00EFFF0420FFF702F8002211464FF0FF30A5
:10165C00FEF7B2FF15B05DF804FBEA210848FFF76E
:10166C0087FFF1210648FFF783FFFF210448FFF7AE
:10167C007FFF00BF0038024000700040D34D621065
:10168C00F819000800B583B0FEF758FFFFF790FF7C
:10169C00FFF752FFFFF76EFF3E4B1A6A42F48012BF
:1016AC001A621A6A22F480121A621A6942F004024F
:1016BC001A611A6922F004021A611A6942F00802CE
:1016CC001A611A6922F008021A611A6942F0400282
:1016DC001A611A6922F040021A611A6A42F0010278
:1016EC001A621A6A22F001021A621A6C42F00102A2
:1016FC001A641A6C42F480121A641A6B42F00402D7
:10170C001A631A6B42F008021A631A6B42F0400219
:10171C001A634FF080434EF66022DA621D229A6201
:10172C0000225A6219224FF400511B48FFF7ADFDFD
:10173C001A4C1A224FF480512046FFF7A6FD0822BE
:10174C004FF480512046FFF7F6FD04F580640A2221
:10175C0004212046FFF799FD082204212046FFF7BB
:10176C00EAFDA4F5DE340E4B01934FF4E133009304
:10177C0043F20C6200232046FFF770FE3520FFF782
:10178C00FFFD1C20FFF7FCFDE36843F02003E36042
:10179C00FEE700BF0038024000180240000802407B
:1017AC0040A5AE0210B582B000240094214B5A6CB7
:1017BC0042F480425A645A6C02F480420092009ABD
:1017CC0001941A6C42F080521A641B6C03F0805323
:1017DC000193019B0320FEF7DDFE224621466FF0AC
:1017EC000B00FEF7E9FE224621466FF00A00FEF7D9
:1017FC00E3FE224621466FF00900FEF7DDFE22468D
:10180C0021466FF00400FEF7D7FE224621466FF00A
:10181C000300FEF7D1FE224621466FF00100FEF7D1
:10182C00CBFE224621464FF0FF30FEF7C5FE02B03C
:10183C0010BD00BF003802400268124B9A4200D023
:10184C00704700B587B0002300930F4B1A6C42F41D
:10185C0080121A641B6C03F480130093009B4FF4EA
:10186C0080530193122302930123039303230493C4
:10187C000823059301A90548FEF7FEFE07B05DF8A5
:10188C0004FB00BF0050004000380240000802403A
:10189C007047FEE7FEE7FEE7FEE7704770477047CC
:1018AC0008B5FEF765FEFEF7E2FE08BD0F49D1F85C
:1018BC00883043F47003C1F888300D4B1A6842F03D
:1018CC0001021A60002098601A6822F0847222F4D7
:1018DC0080321A60074A5A601A6822F480221A6011
:1018EC00D8604FF000638B60704700BF00ED00E0E4
:1018FC000038024010300024DFF834D0002103E01F
:10190C000C4B5B58435004310B480C4B42189A4219
:10191C00F6D30B4A02E0002342F8043B094B9A42EF
:10192C00F9D3FFF7C3FF00F011F8FFF7ABFE7047D8
:10193C0000000320181A0008000000200C000020F2
:10194C000C000020F4000020FEE7000070B50D4EE6
:10195C000D4CA41BA4100025A54209D10B4E0C4C18
:10196C0000F018F8A41BA4100025A54205D170BDE9
:10197C0056F8253098470135EEE756F8253098474C
:10198C000135F2E7101A0008101A0008101A0008A6
:10199C00141A0008F8B500BFF8BC08BC9E46704786
:0C19AC00F8B500BFF8BC08BC9E467047B0
:1019B80000000000000000000102030406070809F7
:1019C80000000000010203045455524E204F4E20DF
:1019D8004C4544005455524E204F4646204C4544F1
:1019E80000000000424C494E4B204C45440000008A
:1019F8002E2E2F5372632F6D61696E2E63000000C7
:081A080014E8FF7F010000005B
:041A1000D1010008F8
:041A1400AD01000818
:0C1A180001000000100000000024F40099
:0400000508001905D1
:00000001FF
